:03000000020DC02E
:0C0DC000787FE4F6D8FD75815A020E071A
:100046000D0A4F726967696E616C20737472696E0E
:10005600673A0D0A000D0A004F4B000D0A45535032
:10006600383236362052657365742073756363655E
:10007600737366756C6C79210D0A004553503832DE
:100086003636205265736574206661696C65642135
:100096000D0A004D435520636F6E6E6563742073C1
:1000A600756363657373207769746820426F6F7434
:1000B600557043617264210D0A004D435520636FEC
:1000C6006E6E656374206661696C2077697468205A
:1000D600426F6F74557043617264210D0A006E6F32
:1000E600206368616E676500536574206D6F646593
:1000F60020737563636573732061732041502B53BE
:10010600746174696F6E207769746820426F6F74CA
:10011600557043617264210D0A00536574206D6F3A
:100126006465206661696C2061732041502B5374AD
:100136006174696F6E207769746820426F6F7455B9
:100146007043617264210D0A00536574204150208A
:10015600706172616D732073756363657373206973
:100166006E20426F6F74557043617264210D0A00F0
:1001760053657420415020706172616D7320666111
:10018600696C20696E20426F6F74557043617264AA
:10019600210D0A004D756C7469706C657820636F6B
:1001A6006E6E656374696F6E206D6F64652073652E
:1001B60074207375636365737366756C6C79210D52
:1001C6000A004D756C7469706C657820636F6E6E8D
:1001D600656374696F6E206D6F6465207365742046
:1001E6006661696C6564210D0A0043726561746518
:1001F60020544350207365766572206973207375A9
:10020600636365737366756C6C79210D0A004372BE
:100216006561746520544350207365766572206964
:1002260073206661696C6564210D0A00426F6F7404
:100236005570436172642063757272656E742049ED
:10024600502069733A0D0A000D0A6D6163416464BA
:10025600726573733A0D0A000D0A6F6C642061644F
:1002660064726573733A005175657279204950203E
:100276004572726F72210D0A00436F6E6E6563746C
:10028600696F6E2073706563696669656420574996
:100296004649207375636365737366756C210D0A31
:1002A60000436F6E6E656374696F6E20737065636D
:1002B60069666965642057494649206661696C65C7
:1002C60064210D0A00436F6E6E656374696F6E205C
:1002D60072656D6F74652054435020736576657240
:1002E600206973207375636365737366756C6C79C7
:1002F600210D0A00436F6E6E656374696F6E20721E
:10030600656D6F7465205443502073657665722061
:100316006973206661696C6564210D0A0053657412
:10032600206D6F64652073756363657373206173F5
:100336002053746174696F6E207769746820426F08
:100346006F74557043617264210D0A005365742001
:100356006D6F6465206661696C20617320537461FA
:1003660074696F6E207769746820426F6F74557078
:1003760043617264210D0A004D7920426F6F7455F6
:1003860070436172642069732072756E6E696E6760
:100396002E2E2E0D0A546869732070726F6A65637B
:1003A600742077617320646576656C6F7065642070
:1003B600627920686A6A210D0A0073656E6420708E
:1003C6006172616D733A0D0A0073656E6420636F26
:1003D6006E74656E743A0D0A0053454E44204F4BB9
:1003E600000D0A73656E64206861726477617265D8
:1003F6002069644E756D62657220737563636573FB
:100406007366756C6C79210D0A0073656E642068DD
:10041600617264776172652069644E756D6265729A
:10042600206661696C6564210D0A002B4950440001
:100436000D0A6E72656365697665446174613A0D8D
:100446000A000D0A4D79205769666920496E666F64
:10045600726D6174696F6E3A0D0A0041542B4357F1
:100466004A41503D00536176652045535038323637
:100476003620415020576966694E616D6520616E70
:1004860064205769666950617373776F7264206977
:100496006E20436F6E66696775726174696F6E2050
:1004A60069732073756363657373666C7579210D63
:1004B6000A000D0A536572766572206973206E6FA5
:1004C6007420526563656976652064617461210DE7
:1004D6000A00537461727420726563656976696E89
:1004E6006720646174612066726F6D2072656D6F3E
:1004F6007465207365727665722E2E2E0D0A000DB8
:100506000A5265636569766520646174613A0D0A0D
:10051600002B4950442C313A41004F70656E204CF7
:100526004544210D0A002B4950442C313A420043E0
:100536006C6F7365204C4544210D0A004E6F206D8B
:1005460061746368696E6720636F6D6D616E647355
:10055600207765726520666F756E64210D0A0053FB
:1005660075636365737366756C20746F2073656E4F
:1005760064206F662054435020686561727462651A
:100586006174207061636B6574210D0A00466169B0
:100596006C656420746F2073656E6420544350202C
:1005A600686561727462656174207061636B6574FD
:1005B600210D0A0041540D0A0041542B43574D4F5B
:1005C60044453D320D0A0041542B43495041504D9C
:1005D60041433F0D0A0041542B43495053454E4475
:1005E6003D330D0A00686A6A0D0A0041542B4349DF
:1005F600505345525645523D312C393939390D0A39
:100606000041542B4349504D55583D310D0A004188
:10061600542B5253540D0A0041542B435753415007
:100626003D22426F6F745570436172642D48616E4E
:100636004A756E4A756E222C22313233343536377E
:10064600383930222C31312C330D0A0041542B43DA
:10065600495053544152543D22544350222C223186
:1006660031322E37342E35312E3935222C38383862
:10067600380D0A0041542B43574A41503D226170C0
:10068600702D61222C2231323334353637383930E9
:10069600220D0A0041542B43574D4F44453D310D21
:1006A6000A0041542B43495053454E443D302C31AA
:0906B600370D0A002200003A0091
:1013A300E4F594F593F592F591F596F595F5B2F587
:0613B300B1F5B4F5B32210
:0C0C4600751C00751D017B017A0079000F
:060C52008B168A178918B9
:100C5800E4F51EF51F7BFF7A0079461213F5AB16F3
:100C6800AA17A9181213F57BFF7A00795B1213F5FE
:100C7800851923851A24851B25AB16AA17A91812CE
:100C88000ECE8B168A178918E51D451C70578018DB
:100C9800E518451745166067051FE51F7002051E14
:100CA800B51D27E51EB51C227BFF7A00795B121360
:100CB800F5AB16AA17A9181213F57BFF7A00795B12
:100CC8001213F5AB16AA17A918227BFF7A00795BD5
:100CD8001213F5AB16AA17A9181213F57BFF7A00A1
:100CE800795B1213F5851923851A24851B257B004A
:0F0CF8007A007900120ECE8B168A178918809118
:010D070022C9
:0F132B007519FF751A00751B5E7B017A0079003A
:10133A0085191F851A20851B21120E4CE94A4B601C
:07134A00037F01227F002256
:1013CF007E007F327D007B017A007900120BEDE405
:0313DF00F55A229A
:0C13E2008FC48EC375C65A75C6A57F0A5D
:0713EE00AE071FEE70FA22AA
:0D144C00E4F5C7F5C5F5C675C380F5C422EB
:0E143D0075C78275C5011213E2AFC212144CBE
:01144B00227E
:10141B0075C78275C5028FC48EC38DC21213E602C7
:02142B00144C5F
:0C14590075C78275C5031213E202144C23
:101180007BFF7A0679151212AD7B017A0079001285
:1011900013F512132BEF600C7BFF7A0079611213A9
:1011A000F50213CF7BFF7A0079811213F57F587E09
:0611B0000212000380CAD8
:1008E8007BFF7A0579BA1212AD12132BEF600E7BDB
:1008F800FF7A0079991213F51213CF80127BFF7AD1
:100908000079C01213F57F587E0212000380D17B54
:10091800FF7A0579BF1212AD12132BEF700F7519FC
:10092800FF751A00751BE4121334EF600E7BFF7A13
:100938000079EE1213F51213CF80127BFF7A01793A
:10094800201213F57F587E0212000380C27BFF7AC3
:1009580006791E1212AD12132BEF700F7519FF7561
:100968001A00751BE4121334EF600E7BFF7A0179CD
:100978004F1213F51213CF80127BFF7A017976128A
:1009880013F57F587E0212000380C27BFF7A067936
:10099800071212AD12132BEF600E7BFF7A01799AC2
:1009A8001213F51213CF80127BFF7A0179C8121344
:1009B800F57F587E0212000380D17BFF7A0579F11A
:1009C8001212AD12132BEF600E7BFF7A0179F01231
:1009D80013F51213CF80127BFF7A0279141213F5E4
:0909E8007F587E0212000380D149
:1009F10078107C007D007BFF7A0679BA7E007F0348
:100A0100120B9C7513007514007515017BFF7A0597
:100A110079CD1212AD12132BEF7003020AB97BFFCD
:100A21007A0279321213F57B017A0079001213F5FB
:100A31007BFF7A00795B1213F5751900751A007541
:100A41001B10120C468B138A1489157B017A0079CD
:100A5100001213F57BFF7A00795B1213F5AB13AA31
:100A610014A9151213F57BFF7A00795B1213F5783F
:100A71002F7C007D00AB13AA14A9157E007F1112F3
:100A81000B9C7BFF7A02794E1213F57B007A007979
:100A91002F1213F57BFF7A00795B1213F57BFF7A36
:100AA10002795E1213F5AB13AA14A9151213F57B83
:100AB100FF7A00795B0213F57BFF7A02796D1213DD
:080AC100F57F587E02120003CC
:030AC9000209F12E
:100F4E007BFF7A06797A1212AD7BFF7A06797A12D6
:100F5E0013F512132BEF600E7BFF7A02797F1213BB
:100F6E00F51213CF80127BFF7A0279A71213F57F49
:100F7E00B87E0B12000380C87BFF7A0679521212DC
:100F8E00AD12132BEF600C7BFF7A0279CB1213F5A7
:100F9E000213CF7BFF7A0279FA1213F57FC47E0912
:050FAE0012000380D3D6
:100D08001211807FD07E07802A7BFF7A0579BA127C
:100D180012AD12132BEF600E7BFF7A007999121334
:100D2800F51213CF80127BFF7A0079C01213F57F7A
:100D3800587E0212000380D17BFF7A06799A12123C
:100D4800AD12132BEF700F7519FF751A00751BE4A0
:100D5800121334EF600E7BFF7A0379231213F51216
:100D680013CF80127BFF7A0379521213F57F587ED6
:100D78000212000380C2120F4E7BFF7A0579CD1252
:100D880012AD12132BEF601E7BFF7A027932121319
:100D9800F57B017A0079001213F57BFF7A00795B05
:100DA8001213F50213CF7BFF7A02796D1213F57FC8
:080DB800587E0212000380C105
:1006BF0075080075090F750A031213A3121351D28F
:1006CF00AC75AF01D2AF7F607E071200037FD012EF
:1006DF0013EE7BFF7A03797E1213F51213CF1208F4
:1006EF00E87BFF7A0379C01213F57BFF7A0679A8AE
:1006FF001213F57BFF7A00795B1213F57BFF7A03F8
:10070F0079CF1213F57B007A00792F1213F57BFF47
:10071F007A0679A81212AD7FC87E001200037B0003
:10072F007A00792F1212AD7F2C7E011200037519FA
:10073F00FF751A03751BDF121334EF600B7BFF7A03
:10074F000379E71213F580127BFF7A0479101213E5
:10075F00F57FE87E0312000380877519FF751A0471
:09076F00751B31121334EF607B9D
:10077800780B7C007D007BFF7A0679BD7E007F02C6
:10078800120B9C751900751A00751B0B120C468B01
:100798000D8A0E890F7BFF7A0479361213F5AB0D9B
:1007A800AA0EA90F1213F57BFF7A00795B1213F5D5
:1007B8007BFF7A0479481213F5AB0DAA0EA90F1224
:1007C80013F57BFF7A00795B1213F57519FF751A1B
:1007D80004751B61AB0DAA0EA90F12133AEF601D29
:0B07E8007BFF7A04796B1213F5801F71
:1007F3007BFF7A0479B81213F57BFF7A00795B12D9
:1008030013F51213CF7FE87E031200030207691268
:100813000D087BFF7A0479D81213F51213CF7BFFEF
:100823007A0579051213F57B017A0079001213F525
:100833007BFF7A00795B1213F57519FF751A05753D
:100843001B17121334EF600D7BFF7A057920121307
:10085300F5C2CD80237519FF751A05751B2C12136C
:1008630034EF7BFF600B7A0579351213F5D2CD8017
:10087300077A0579421213F51213CF7F147E031200
:100883000003D3E5099400E5089400504D75080072
:1008930075090F7BFF7A0579DC1212AD7FC87E00E4
:1008A3001200037BFF7A0579EB1212AD7F2C7E01D8
:1008B3001200037519FF751A03751BDF121334EF4A
:1008C3007BFF60097A0579651213F5800A7A057949
:1008D300931213F5120F4E1213CFE5091509700287
:0508E3001508020821C8
:10002600E4FDFCC3ED9FEC9E500DE4FB0BBB05FC11
:070036000DBD00010C80EC80
:01003D0022A0
:040003008E168F17AF
:10000700900000C3E5829517E5839516500A7FFA9D
:080017007E00120026A380EB1D
:01001F0022BE
:10142D00BF0107759140E4F59222E4F591F5922202
:10137500D296D2957F027E00120026C2967F027E0B
:0713850000120026C29522B0
:1013B900C295C2967F027E00120026D295D2967FF0
:0613C900027E0002002676
:1011B600E4F5597F0112142DD2967E00120026D234
:1011C600957F017E001200263096130559E559D306
:1011D60094FA40F41213B9E4FF12142D0F22C295AB
:0511E600E4FF12142DCE
:0111EB0022E1
:021109008F5302
:10110B00E4F554AF54E553A807088002C333D8FC69
:10111B0030E704D2968002C2967F017E0012002631
:10112B00D2957F017E00120026C2957F017E0012B0
:0B113B0000260554E554C3940840C88A
:011146002286
:1011EC00C2957F027E00120026D2967F027E0012EC
:1011FC000026C2967F027E00120026D2957F027EC8
:10120C0000120026C2957F027E00120026D2967F25
:06121C00027E0002002624
:10128000C2957F027E00120026D2967F027E001257
:101290000026D2957F027E00120026C2957F027E34
:0D12A00000120026C2967F027E000200268A
:021071008F4DA1
:10107300E4F54E7F0112142DD2967F0F7E001200ED
:1010830026E4F54FC2957F027E00120026D2957F9B
:10109300017E00120026E54E25E0F54E309602054E
:1010A3004E7F017E00120026054FE54FC394084092
:1010B300D3E4FF12142DE54D700512128080031244
:0410C30011ECAF4E2F
:0110C7002206
:021222008F55E6
:10122400E4F5561213757FA01211091211B6AF55C9
:101234001211091211B61213757FA112110912119C
:0D124400B6E4FF1210718F561213B9AF56A9
:01125100227A
:101302008F578D581213757FA01211091211B6AFA3
:10131200571211091211B6AF581211091211B61251
:0913220013B97F0A7E00020003EA
:101252008F438B448A458946AF471547EF601EABE3
:1012620044AA45A946120BC2FDAF4312130205431D
:0E12720074012546F546E43545F54580DB223E
:1012D8008F488B498A4A894BE54C601DAF480548C1
:1012E800121222AB49054BE54BAA4A7002054A1473
:0A12F800F9EF120BDB154C80DF222A
:03003E00015A0064
:10135100759850438E40538EFE53890F758BE875F7
:101361008DFFD28E759A50438E0475D7E875D6FFDE
:04137100438E102275
:081470008F993099FDC2992209
:081478008F993099FDC2992201
:1013F500120BC2FF600C121470740129F9E43AFA59
:0314050080EE2254
:10140800120BC2FF600C121470740129F9E43AFA45
:0314180080EE2241
:10138C00AF051DEF6010120BC2FF1214707401290F
:07139C00F9E43AFA80EA22AD
:0B1465008F9BE59A30E1FB539AFD22BB
:1012AD008B168A178918E4F5AFAB16AA17A9181271
:1012BD000BC260130518E5187002051714F9120B0F
:0B12CD00C2FF12146580E275AF012221
:0300230002114780
:10114700C0E0C083C082C0D0C2AC30981CC29874C3
:1011570000255AF582E43400F583E599F0055AE550
:101167005AD394324003755A00309902C299D2ACCF
:09117700D0D0D082D083D0E03248
:030043000210C8E0
:1010C800C0E0C083C082C0D075AF00E59A30E01D93
:1010D800539AFE7400255AF582E43400F583E59BA3
:1010E800F0055AE55AD394324003755A00E59A3010
:1010F800E103539AFD75AF01D0D0D082D083D0E000
:0111080032B4
:100DCC000206BFE493A3F8E493A34003F68001F278
:100DDC0008DFF48029E493A3F85407240CC8C33328
:100DEC00C4540F4420C8834004F456800146F6DFF7
:100DFC00E4800B010204081020408090003EE47E49
:100E0C00019360BCA3FF543F30E509541FFEE493EB
:100E1C00A360010ECF54C025E060A840B8E493A3B2
:100E2C00FAE493A3F8E493A3C8C582C8CAC583CADD
:100E3C00F0A3C8C582C8CAC583CADFE9DEE780BE95
:0100410000BE
:100ACC00E709F608DFFA8046E709F208DFFA803E0C
:100ADC0088828C83E709F0A3DFFA8032E309F608F9
:100AEC00DFFA8078E309F208DFFA807088828C8361
:100AFC00E309F0A3DFFA806489828A83E0A3F60815
:100B0C00DFFA805889828A83E0A3F208DFFA804CEE
:100B1C0080D280FA80C680D4806980F280338010C5
:100B2C0080A680EA809A80A880DA80E280CA80332E
:100B3C0089828A83ECFAE493A3C8C582C8CCC583A6
:100B4C00CCF0A3C8C582C8CCC583CCDFE9DEE78076
:100B5C000D89828A83E493A3F608DFF9ECFAA9F0F5
:100B6C00EDFB2289828A83ECFAE0A3C8C582C8CC4B
:100B7C00C583CCF0A3C8C582C8CCC583CCDFEADE64
:100B8C00E880DB89828A83E493A3F208DFF980CCC6
:100B9C0088F0EF60010E4E60C388F0ED2402B404BF
:100BAC000050B9F582EB2402B4040050AF23234566
:060BBC008223900B1C7364
:100BC200BB010689828A83E0225002E722BBFE0231
:090BD200E32289828A83E4932264
:100BDB00BB010689828A83F0225002F722BBFE01F9
:020BEB00F322F3
:100E4C008B1C8A1D891EAB1FAA20A921120BC26004
:100E5C0063AB1CAA1DA91E120BC2605F851F2285E5
:100E6C0020238521248B258A268927AB22AA23A916
:100E7C0024120BC2FF6023AB25AA26A927120BC292
:100E8C006F7017042524F524E43523F5237401250C
:100E9C0027F527E43526F52680D1AB22AA23A924F1
:100EAC00120BC27002800D7401251EF51EE4351D57
:100EBC00F51D809DAB1CAA1DA91E227B007A007912
:020ECC00002202
:100ECE008B208A218922E94A4B7009855020855151
:100EDE0021855222E522452145207002802C852352
:100EEE002985242A85252BAB20AA21A922120FB3EE
:100EFE00EF2522F522EE3521F521AB20FAA922129B
:100F0E000BC2700AF550F551F552FBFAF922852302
:100F1E002985242A85252BAB20AA21A9221210145B
:100F2E008B508A518952EA494B600EE4120BDB0456
:100F3E002552F552E43551F551AB20AA21A92222B2
:100BED00EF4E6012EF60010EEDBB010B89828A831F
:100BFD00F0A3DFFCDEFA2289F05007F709DFFCA92C
:0C0C0D00F022BBFEFCF309DFFCA9F02282
:100FB3008B268A278928E4F52CF52DE4FEFFAB293F
:100FC300AA2AA92B8F828E83120C19FD6013AB26DC
:100FD300AA27A928120BC26D60070FBF00010E805C
:100FE300DDAB29AA2AA92B8F828E83120C197002DA
:100FF300801A052DE52D7002052CAB260528E52862
:1010030070020527F9AA27120BC270AFAE2CAF2DC1
:0110130022BA
:101014008B268A27892885292C852A2D852B2EAB7A
:101024002CAA2DA92E120BC2FF6019AB26AA27A940
:1010340028120BC26F600D7401252EF52EE4352D98
:10104400F52D80DBAB2CAA2DA92E120BC26007ABA9
:1010540026AA27A92822AB260528E528AA27700254
:0D106400052714F9120BC270ADFBFAF9223A
:100C1900BB010CE58229F582E5833AF583E0225090
:100C290006E92582F8E622BBFE06E92582F8E222DA
:0D0C3900E58229F582E5833AF583E49322F4
:00000001FF
